:100000000C9456000C9460000C9460000C946000FA
:100010000C9460000C9460000C9460000C946000E0
:100020000C9460000C9460000C9460000C946000D0
:100030000C9460000C9460000C9460000C946000C0
:100040000C9460000C9460000C9460000C946000B0
:100050000C9460000C9460000C9460000C946000A0
:100060000C9460000C9460000C9460000C94600090
:100070000C9460000C9460000C9460000C94600080
:100080000C9460000C9460000C9460000C94600070
:100090000C9460000C9460000C9460000C94600060
:1000A0000C9460000C9460000C94600011241FBE3E
:1000B000CFEFDAE0DEBFCDBF0E9462000C9481007A
:1000C0000C9400003F9A209A8AB182638AB9479AB9
:1000D000289A8BB182638BB951E040E220E931E08C
:1000E00088B1805888B985B1852785B98BB18427B7
:1000F0008BB980E197E2F9013197F1F70197D9F7D0
:06010000EFCFF894FFCFE1
:00000001FF
