:100000000C9456000C946B000C946B000C946B00D9
:100010000C946B000C946B000C946B000C946B00B4
:100020000C946B000C946B000C946B000C946B00A4
:100030000C946B000C946B000C946B000C946B0094
:100040000C946B000C946B000C946B000C946B0084
:100050000C946B000C946B000C946B000C946B0074
:100060000C946B000C946B000C946B000C946B0064
:100070000C946B000C946B000C946B000C946B0054
:100080000C946B000C946B000C946B000C946B0044
:100090000C946B000C946B000C946B000C946B0034
:1000A0000C946B000C946B000C946B0011241FBE1D
:1000B000CFEFDAE0DEBFCDBF11E0A0E0B1E0E0EAD3
:1000C000F1E002C005900D92A031B107D9F70E946E
:1000D000AE000C94CE000C940000982F8091C800C4
:1000E00085FFFCCF9093CE0008958091C80087FFD4
:1000F000FCCF8091CE0008951092CD0087E68093CA
:10010000CC0088E18093C9008EE08093CA000895F6
:100110002091C800332727FD30952227330F221F57
:100120003327C9010895AC01DC010D900020E9F7E7
:100130001197A81BB90B20E030E00CC0FA01E20FC8
:10014000F31FE0818091C80085FFFCCFE093CE00D3
:100150002F5F3F4F2A173B0788F308951092CD0079
:1001600087E68093CC0088E18093C9008EE080937D
:10017000CA0080E091E00E9493008091C80087FF50
:10018000FCCF8091C80087FFFCCF9091CE0080917A
:10019000C80085FFFCCF9093CE00EFCFF894FFCF3F
:1001A0000A0D57656C636F6D65203A290A0D0000D2
:00000001FF
